:100000000C9434000C9451000C9451000C94510049
:100010000C9451000C9451000C9451000C9451001C
:100020000C9451000C9451000C9451000C9451000C
:100030000C9451000C9451000C9451000C945100FC
:100040000C9451000C9451000C9451000C945100EC
:100050000C9451000C9451000C9451000C945100DC
:100060000C9451000C94510011241FBECFEFD8E026
:10007000DEBFCDBF11E0A0E0B1E0ECEFF4E002C0E4
:1000800005900D92A438B107D9F721E0A4E8B1E0BA
:1000900001C01D92A538B207E1F70E94D0000C9470
:1000A0007C020C9400001092C50087E68093C40087
:1000B000E1ECF0E0808188618083808180688083CA
:1000C00086E08093C2000895ECE7F0E080818064D0
:1000D0008083EAE7F0E080818760808380818062AE
:1000E000808310927B00808180688083808188601B
:1000F00080838081806480830895E0ECF0E09081CB
:1001000095FFFDCF8093C60008950F931F93CF9363
:10011000FC018081882359F08F01C0E00E947D009E
:10012000CF5FF801EC0FF11D80818111F7CFCF91E6
:100130001F910F910895809178009091790080939C
:1001400084016091840170E080E090E00E9483016E
:1001500020E030E04AEF5EE30E94E7010E94520196
:10016000609384019091840120918401E0E0F1E0AA
:100170008DEC989F912D1124969596959695905D6E
:1001800094A7289F812D1124869586958695880FA2
:10019000982F990F990F890F281B205D25A7089587
:1001A000CF93DF93CDB7DEB7C355D1090FB6F8941F
:1001B000DEBF0FBECDBF85E0E1E3F1E0DE011196C9
:1001C00001900D928A95E1F78EE0E6E3F1E0DE0121
:1001D000169601900D928A95E1F78EE2E4E4F1E043
:1001E000DE01549601900D928A95E1F782E1E2E7F3
:1001F000F1E0DE01AE5BBF4F01900D928A95E1F711
:100200000E9453002FEF89E698E1215080409040F2
:10021000E1F700C000000E9464000E949B002FEFE5
:1002200083EC99E0215080409040E1F700C000004D
:10023000CE0101960E9485002FEF83ED90E32150BF
:1002400080409040E1F700C00000CE0106960E9479
:1002500085002FEF83ED90E3215080409040E1F73F
:1002600000C00000CE0144960E9485002FEF83ED70
:1002700090E3215080409040E1F700C00000CE01A3
:100280008E5B9F4F0E9485002FEF83ED90E32150FE
:1002900080409040E1F700C0000080E091E00E94C3
:1002A0008500BBCF0E94C60188F09F5798F0B92FF8
:1002B0009927B751B0F0E1F0660F771F881F991F9B
:1002C0001AF0BA95C9F714C0B13091F00E94E0015C
:1002D000B1E008950C94E001672F782F8827B85F6C
:1002E00039F0B93FCCF3869577956795B395D9F7F3
:1002F0003EF490958095709561957F4F8F4F9F4FFD
:100300000895E89409C097FB3EF490958095709508
:1003100061957F4F8F4F9F4F9923A9F0F92F96E951
:10032000BB279395F695879577956795B795F111C6
:10033000F8CFFAF4BB0F11F460FF1BC06F5F7F4F63
:100340008F4F9F4F16C0882311F096E911C0772375
:1003500021F09EE8872F762F05C0662371F096E87E
:10036000862F70E060E02AF09A95660F771F881F4D
:10037000DAF7880F9695879597F9089557FD905865
:10038000440F551F59F05F3F71F04795880F97FB59
:10039000991F61F09F3F79F0879508951216130613
:1003A0001406551FF2CF4695F1DF08C01616170642
:1003B0001806991FF1CF8695710561050894089577
:1003C000E894BB2766277727CB0197F908950E9409
:1003D000FA010C946B020E945D0238F00E946402E4
:1003E00020F0952311F00C9454020C945A0211241D
:1003F0000C94E1010E94BE0170F3959FC1F3950F2B
:1004000050E0551F629FF001729FBB27F00DB11D98
:10041000639FAA27F00DB11DAA1F649F6627B00D28
:10042000A11D661F829F2227B00DA11D621F739F11
:10043000B00DA11D621F839FA00D611D221F749F1F
:100440003327A00D611D231F849F600D211D822F66
:10045000762F6A2F11249F5750409AF0F1F088238D
:100460004AF0EE0FFF1FBB1F661F771F881F9150BA
:100470005040A9F79E3F510580F00C9454020C9413
:10048000E1015F3FE4F3983ED4F386957795679555
:10049000B795F795E7959F5FC1F7FE2B880F911DE4
:1004A0009695879597F9089597F99F6780E870E08A
:1004B00060E008959FEF80EC089500240A941616DA
:1004C000170618060906089500240A941216130642
:1004D000140605060895092E0394000C11F48823D0
:1004E00052F0BB0F40F4BF2B11F460FF04C06F5FEC
:0C04F0007F4F8F4F9F4F0895F894FFCF6F
:1004FC00474554202F7570646174653F6170695F66
:10050C006B65793D584A4432484F5630344C32551D
:10051C004F435832266669656C64313D37300D0A9D
:10052C000041540D0A0041542B4349504D55583D40
:10053C00310D0A0041542B43495053544152543D00
:10054C00302C22544350222C226170692E7468691D
:10055C006E67737065616B2E636F6D222C38300D76
:10056C000A0041542B43495053454E443D302C34E2
:04057C00380D0A002C
:00000001FF
